{
  "transactions": [
    {
      "hash": "0x052fe32cf3f43fea353480304803b66a7709763910a30abda5d4551e7ba4db58",
      "transactionType": "CALL",
      "contractName": "LinkToken",
      "contractAddress": "0x779877a7b0d9e8603169ddbd7836e478b4624789",
      "function": "transferAndCall(address,uint256,bytes)",
      "arguments": [
        "0x9DdfaCa8183c41ad55329BdeeD9F6A8d53168B1B",
        "3000000000000000000",
        "0x7d3baa41c056bbf595d0b6c7eb236de91d6cff2b24dcd496735e658078850dfc"
      ],
      "transaction": {
        "from": "0x6a638eb929340f38b9900d25b06b1beec8e197df",
        "to": "0x779877a7b0d9e8603169ddbd7836e478b4624789",
        "gas": "0x14cbb",
        "value": "0x0",
        "input": "0x4000aea00000000000000000000000009ddfaca8183c41ad55329bdeed9f6a8d53168b1b00000000000000000000000000000000000000000000000029a2241af62c0000000000000000000000000000000000000000000000000000000000000000006000000000000000000000000000000000000000000000000000000000000000207d3baa41c056bbf595d0b6c7eb236de91d6cff2b24dcd496735e658078850dfc",
        "nonce": "0x5",
        "chainId": "0xaa36a7"
      },
      "additionalContracts": [],
      "isFixedGasLimit": false
    }
  ],
  "receipts": [
    {
      "status": "0x1",
      "cumulativeGasUsed": "0xa2f02c",
      "logs": [
        {
          "address": "0x779877a7b0d9e8603169ddbd7836e478b4624789",
          "topics": [
            "0xddf252ad1be2c89b69c2b068fc378daa952ba7f163c4a11628f55a4df523b3ef",
            "0x0000000000000000000000006a638eb929340f38b9900d25b06b1beec8e197df",
            "0x0000000000000000000000009ddfaca8183c41ad55329bdeed9f6a8d53168b1b"
          ],
          "data": "0x00000000000000000000000000000000000000000000000029a2241af62c0000",
          "blockHash": "0xfdf26bffdf20b442b5a25669b66d7398e3c4d68ba008fd0532ed5d340c36f4a9",
          "blockNumber": "0x6b8d30",
          "transactionHash": "0x052fe32cf3f43fea353480304803b66a7709763910a30abda5d4551e7ba4db58",
          "transactionIndex": "0x41",
          "logIndex": "0x6d",
          "removed": false
        },
        {
          "address": "0x779877a7b0d9e8603169ddbd7836e478b4624789",
          "topics": [
            "0xe19260aff97b920c7df27010903aeb9c8d2be5d310a2c67824cf3f15396e4c16",
            "0x0000000000000000000000006a638eb929340f38b9900d25b06b1beec8e197df",
            "0x0000000000000000000000009ddfaca8183c41ad55329bdeed9f6a8d53168b1b"
          ],
          "data": "0x00000000000000000000000000000000000000000000000029a2241af62c0000000000000000000000000000000000000000000000000000000000000000004000000000000000000000000000000000000000000000000000000000000000207d3baa41c056bbf595d0b6c7eb236de91d6cff2b24dcd496735e658078850dfc",
          "blockHash": "0xfdf26bffdf20b442b5a25669b66d7398e3c4d68ba008fd0532ed5d340c36f4a9",
          "blockNumber": "0x6b8d30",
          "transactionHash": "0x052fe32cf3f43fea353480304803b66a7709763910a30abda5d4551e7ba4db58",
          "transactionIndex": "0x41",
          "logIndex": "0x6e",
          "removed": false
        },
        {
          "address": "0x9ddfaca8183c41ad55329bdeed9f6a8d53168b1b",
          "topics": [
            "0x1ced9348ff549fceab2ac57cd3a9de38edaaab274b725ee82c23e8fc8c4eec7a",
            "0x7d3baa41c056bbf595d0b6c7eb236de91d6cff2b24dcd496735e658078850dfc"
          ],
          "data": "0x000000000000000000000000000000000000000000000000a688906bd8b00000000000000000000000000000000000000000000000000000d02ab486cedc0000",
          "blockHash": "0xfdf26bffdf20b442b5a25669b66d7398e3c4d68ba008fd0532ed5d340c36f4a9",
          "blockNumber": "0x6b8d30",
          "transactionHash": "0x052fe32cf3f43fea353480304803b66a7709763910a30abda5d4551e7ba4db58",
          "transactionIndex": "0x41",
          "logIndex": "0x6f",
          "removed": false
        }
      ],
      "logsBloom": "0x010000040000000000000000000000000000000000200000000000000200000000000000000000000000000000000000400000000000000000000000000000000000000000000000000000080000000000000000000000000000200000200000080000000000000000000000000000000000000000000000000000100000400000000000000000000000000100008000000000200000000000000000000000000000000000010000000000000100000000000000000000000000040000000000000000020000000000000000000000000000000000000001000000000000000000100000000000008000000400000000000000000c0000000000000000000000",
      "type": "0x2",
      "transactionHash": "0x052fe32cf3f43fea353480304803b66a7709763910a30abda5d4551e7ba4db58",
      "transactionIndex": "0x41",
      "blockHash": "0xfdf26bffdf20b442b5a25669b66d7398e3c4d68ba008fd0532ed5d340c36f4a9",
      "blockNumber": "0x6b8d30",
      "gasUsed": "0xf0e5",
      "effectiveGasPrice": "0x143debd0c",
      "from": "0x6a638eb929340f38b9900d25b06b1beec8e197df",
      "to": "0x779877a7b0d9e8603169ddbd7836e478b4624789",
      "contractAddress": null
    }
  ],
  "libraries": [],
  "pending": [],
  "returns": {},
  "timestamp": 1731233444,
  "chain": 11155111,
  "commit": "b0bc98a"
}